{
  "contractName": "GenerateAvatar",
  "abi": [
    {
      "constant": true,
      "inputs": [
        {
          "name": "",
          "type": "uint256"
        }
      ],
      "name": "work",
      "outputs": [
        {
          "name": "",
          "type": "address"
        }
      ],
      "payable": false,
      "stateMutability": "view",
      "type": "function",
      "signature": "0x5858d161"
    },
    {
      "constant": true,
      "inputs": [
        {
          "name": "",
          "type": "uint256"
        }
      ],
      "name": "avatars",
      "outputs": [
        {
          "name": "id",
          "type": "uint256"
        },
        {
          "name": "name",
          "type": "string"
        },
        {
          "name": "class",
          "type": "string"
        }
      ],
      "payable": false,
      "stateMutability": "view",
      "type": "function",
      "signature": "0x834d5fac"
    },
    {
      "constant": true,
      "inputs": [
        {
          "name": "",
          "type": "address"
        }
      ],
      "name": "avatarOwner",
      "outputs": [
        {
          "name": "id",
          "type": "uint256"
        },
        {
          "name": "name",
          "type": "string"
        },
        {
          "name": "class",
          "type": "string"
        }
      ],
      "payable": false,
      "stateMutability": "view",
      "type": "function",
      "signature": "0xdea4e08f"
    },
    {
      "inputs": [],
      "payable": false,
      "stateMutability": "nonpayable",
      "type": "constructor",
      "signature": "constructor"
    },
    {
      "constant": false,
      "inputs": [
        {
          "name": "_id",
          "type": "uint256"
        },
        {
          "name": "_name",
          "type": "string"
        },
        {
          "name": "_class",
          "type": "string"
        }
      ],
      "name": "createAvatar",
      "outputs": [],
      "payable": false,
      "stateMutability": "nonpayable",
      "type": "function",
      "signature": "0x68ae6794"
    },
    {
      "constant": false,
      "inputs": [
        {
          "name": "_name",
          "type": "string"
        },
        {
          "name": "_class",
          "type": "string"
        }
      ],
      "name": "createAvatar",
      "outputs": [],
      "payable": false,
      "stateMutability": "nonpayable",
      "type": "function",
      "signature": "0xe4a309bf"
    },
    {
      "constant": true,
      "inputs": [],
      "name": "index",
      "outputs": [
        {
          "name": "",
          "type": "uint256"
        }
      ],
      "payable": false,
      "stateMutability": "view",
      "type": "function",
      "signature": "0x2986c0e5"
    },
    {
      "constant": false,
      "inputs": [],
      "name": "rngAvatar",
      "outputs": [
        {
          "name": "",
          "type": "uint256"
        },
        {
          "name": "",
          "type": "string"
        },
        {
          "name": "",
          "type": "string"
        }
      ],
      "payable": true,
      "stateMutability": "payable",
      "type": "function",
      "signature": "0xb9754d4e"
    },
    {
      "constant": true,
      "inputs": [],
      "name": "getAvatar",
      "outputs": [
        {
          "name": "",
          "type": "uint256"
        },
        {
          "name": "",
          "type": "string"
        },
        {
          "name": "",
          "type": "string"
        }
      ],
      "payable": false,
      "stateMutability": "view",
      "type": "function",
      "signature": "0xaa8b20f6"
    },
    {
      "constant": true,
      "inputs": [],
      "name": "random",
      "outputs": [
        {
          "name": "",
          "type": "uint256"
        }
      ],
      "payable": false,
      "stateMutability": "view",
      "type": "function",
      "signature": "0x5ec01e4d"
    },
    {
      "constant": false,
      "inputs": [
        {
          "name": "_rng",
          "type": "uint256"
        }
      ],
      "name": "deleteAndFix",
      "outputs": [],
      "payable": false,
      "stateMutability": "nonpayable",
      "type": "function",
      "signature": "0x5888f68d"
    }
  ],
  "bytecode": "0x60806040526040805190810160405280600481526020017f7465737400000000000000000000000000000000000000000000000000000000815250600090805190602001906200005192919062000661565b503480156200005f57600080fd5b50620000e56040805190810160405280600181526020017f41000000000000000000000000000000000000000000000000000000000000008152506040805190810160405280600681526020017f436f6d6d6f6e000000000000000000000000000000000000000000000000000081525062000598640100000000026401000000009004565b6200016a6040805190810160405280600181526020017f42000000000000000000000000000000000000000000000000000000000000008152506040805190810160405280600681526020017f436f6d6d6f6e000000000000000000000000000000000000000000000000000081525062000598640100000000026401000000009004565b620001ef6040805190810160405280600181526020017f43000000000000000000000000000000000000000000000000000000000000008152506040805190810160405280600681526020017f436f6d6d6f6e000000000000000000000000000000000000000000000000000081525062000598640100000000026401000000009004565b620002746040805190810160405280600181526020017f44000000000000000000000000000000000000000000000000000000000000008152506040805190810160405280600681526020017f436f6d6d6f6e000000000000000000000000000000000000000000000000000081525062000598640100000000026401000000009004565b620002f96040805190810160405280600181526020017f45000000000000000000000000000000000000000000000000000000000000008152506040805190810160405280600881526020017f556e636f6d6d6f6e00000000000000000000000000000000000000000000000081525062000598640100000000026401000000009004565b6200037e6040805190810160405280600181526020017f46000000000000000000000000000000000000000000000000000000000000008152506040805190810160405280600881526020017f556e636f6d6d6f6e00000000000000000000000000000000000000000000000081525062000598640100000000026401000000009004565b620004036040805190810160405280600181526020017f47000000000000000000000000000000000000000000000000000000000000008152506040805190810160405280600881526020017f556e636f6d6d6f6e00000000000000000000000000000000000000000000000081525062000598640100000000026401000000009004565b620004886040805190810160405280600181526020017f48000000000000000000000000000000000000000000000000000000000000008152506040805190810160405280600481526020017f526172650000000000000000000000000000000000000000000000000000000081525062000598640100000000026401000000009004565b6200050d6040805190810160405280600181526020017f49000000000000000000000000000000000000000000000000000000000000008152506040805190810160405280600481526020017f526172650000000000000000000000000000000000000000000000000000000081525062000598640100000000026401000000009004565b620005926040805190810160405280600181526020017f5a000000000000000000000000000000000000000000000000000000000000008152506040805190810160405280600781526020017f5370656369616c0000000000000000000000000000000000000000000000000081525062000598640100000000026401000000009004565b62000797565b60006001620005b562000654640100000000026401000000009004565b0190506001600360606040519081016040528084815260200186815260200185815250908060018154018082558091505090600182039060005260206000209060030201600090919290919091506000820151816000015560208201518160010190805190602001906200062b929190620006e8565b5060408201518160020190805190602001906200064a929190620006e8565b5050505050505050565b6000600380549050905090565b828054600181600116156101000203166002900490600052602060002090601f016020900481019282601f10620006a457805160ff1916838001178555620006d5565b82800160010185558215620006d5579182015b82811115620006d4578251825591602001919060010190620006b7565b5b509050620006e491906200076f565b5090565b828054600181600116156101000203166002900490600052602060002090601f016020900481019282601f106200072b57805160ff19168380011785556200075c565b828001600101855582156200075c579182015b828111156200075b5782518255916020019190600101906200073e565b5b5090506200076b91906200076f565b5090565b6200079491905b808211156200079057600081600090555060010162000776565b5090565b90565b61172d80620007a76000396000f3fe6080604052600436106100a4576000357c0100000000000000000000000000000000000000000000000000000000900463ffffffff1680632986c0e5146100a95780635858d161146100d45780635888f68d1461014f5780635ec01e4d1461018a57806368ae6794146101b5578063834d5fac1461031e578063aa8b20f614610445578063b9754d4e14610548578063dea4e08f1461063e578063e4a309bf1461077b575b600080fd5b3480156100b557600080fd5b506100be6108da565b6040518082815260200191505060405180910390f35b3480156100e057600080fd5b5061010d600480360360208110156100f757600080fd5b81019080803590602001909291905050506108e7565b604051808273ffffffffffffffffffffffffffffffffffffffff1673ffffffffffffffffffffffffffffffffffffffff16815260200191505060405180910390f35b34801561015b57600080fd5b506101886004803603602081101561017257600080fd5b8101908080359060200190929190505050610925565b005b34801561019657600080fd5b5061019f610a44565b6040518082815260200191505060405180910390f35b3480156101c157600080fd5b5061031c600480360360608110156101d857600080fd5b8101908080359060200190929190803590602001906401000000008111156101ff57600080fd5b82018360208201111561021157600080fd5b8035906020019184600183028401116401000000008311171561023357600080fd5b91908080601f016020809104026020016040519081016040528093929190818152602001838380828437600081840152601f19601f8201169050808301925050505050505091929192908035906020019064010000000081111561029657600080fd5b8201836020820111156102a857600080fd5b803590602001918460018302840111640100000000831117156102ca57600080fd5b91908080601f016020809104026020016040519081016040528093929190818152602001838380828437600081840152601f19601f820116905080830192505050505050509192919290505050610ace565b005b34801561032a57600080fd5b506103576004803603602081101561034157600080fd5b8101908080359060200190929190505050610b66565b604051808481526020018060200180602001838103835285818151815260200191508051906020019080838360005b838110156103a1578082015181840152602081019050610386565b50505050905090810190601f1680156103ce5780820380516001836020036101000a031916815260200191505b50838103825284818151815260200191508051906020019080838360005b838110156104075780820151818401526020810190506103ec565b50505050905090810190601f1680156104345780820380516001836020036101000a031916815260200191505b509550505050505060405180910390f35b34801561045157600080fd5b5061045a610ccf565b604051808481526020018060200180602001838103835285818151815260200191508051906020019080838360005b838110156104a4578082015181840152602081019050610489565b50505050905090810190601f1680156104d15780820380516001836020036101000a031916815260200191505b50838103825284818151815260200191508051906020019080838360005b8381101561050a5780820151818401526020810190506104ef565b50505050905090810190601f1680156105375780820380516001836020036101000a031916815260200191505b509550505050505060405180910390f35b610550610ede565b604051808481526020018060200180602001838103835285818151815260200191508051906020019080838360005b8381101561059a57808201518184015260208101905061057f565b50505050905090810190601f1680156105c75780820380516001836020036101000a031916815260200191505b50838103825284818151815260200191508051906020019080838360005b838110156106005780820151818401526020810190506105e5565b50505050905090810190601f16801561062d5780820380516001836020036101000a031916815260200191505b509550505050505060405180910390f35b34801561064a57600080fd5b5061068d6004803603602081101561066157600080fd5b81019080803573ffffffffffffffffffffffffffffffffffffffff16906020019092919050505061128c565b604051808481526020018060200180602001838103835285818151815260200191508051906020019080838360005b838110156106d75780820151818401526020810190506106bc565b50505050905090810190601f1680156107045780820380516001836020036101000a031916815260200191505b50838103825284818151815260200191508051906020019080838360005b8381101561073d578082015181840152602081019050610722565b50505050905090810190601f16801561076a5780820380516001836020036101000a031916815260200191505b509550505050505060405180910390f35b34801561078757600080fd5b506108d86004803603604081101561079e57600080fd5b81019080803590602001906401000000008111156107bb57600080fd5b8201836020820111156107cd57600080fd5b803590602001918460018302840111640100000000831117156107ef57600080fd5b91908080601f016020809104026020016040519081016040528093929190818152602001838380828437600081840152601f19601f8201169050808301925050505050505091929192908035906020019064010000000081111561085257600080fd5b82018360208201111561086457600080fd5b8035906020019184600183028401116401000000008311171561088657600080fd5b91908080601f016020809104026020016040519081016040528093929190818152602001838380828437600081840152601f19601f8201169050808301925050505050505091929192905050506113e6565b005b6000600380549050905090565b6004818154811015156108f657fe5b906000526020600020016000915054906101000a900473ffffffffffffffffffffffffffffffffffffffff1681565b60038181548110151561093457fe5b906000526020600020906003020160008082016000905560018201600061095b919061148d565b60028201600061096b919061148d565b505060008190505b600160038054905003811015610a2a5760036001820181548110151561099557fe5b90600052602060002090600302016003828154811015156109b257fe5b906000526020600020906003020160008201548160000155600182018160010190805460018160011615610100020316600290046109f19291906114d5565b5060028201816002019080546001816001161561010002031660029004610a199291906114d5565b509050508080600101915050610973565b506003805480919060019003610a40919061155c565b5050565b6000806001610a516108da565b4233600154604051602001808481526020018373ffffffffffffffffffffffffffffffffffffffff1673ffffffffffffffffffffffffffffffffffffffff16815260200182815260200193505050506040516020818303038152906040528051906020012060019004811515610ac357fe5b060190508091505090565b600160036060604051908101604052808681526020018581526020018481525090806001815401808255809150509060018203906000526020600020906003020160009091929091909150600082015181600001556020820151816001019080519060200190610b3f92919061158e565b506040820151816002019080519060200190610b5c92919061158e565b5050505050505050565b600381815481101515610b7557fe5b9060005260206000209060030201600091509050806000015490806001018054600181600116156101000203166002900480601f016020809104026020016040519081016040528092919081815260200182805460018160011615610100020316600290048015610c275780601f10610bfc57610100808354040283529160200191610c27565b820191906000526020600020905b815481529060010190602001808311610c0a57829003601f168201915b505050505090806002018054600181600116156101000203166002900480601f016020809104026020016040519081016040528092919081815260200182805460018160011615610100020316600290048015610cc55780601f10610c9a57610100808354040283529160200191610cc5565b820191906000526020600020905b815481529060010190602001808311610ca857829003601f168201915b5050505050905083565b6000606080600260003373ffffffffffffffffffffffffffffffffffffffff1673ffffffffffffffffffffffffffffffffffffffff16815260200190815260200160002060000154600260003373ffffffffffffffffffffffffffffffffffffffff1673ffffffffffffffffffffffffffffffffffffffff168152602001908152602001600020600101600260003373ffffffffffffffffffffffffffffffffffffffff1673ffffffffffffffffffffffffffffffffffffffff168152602001908152602001600020600201818054600181600116156101000203166002900480601f016020809104026020016040519081016040528092919081815260200182805460018160011615610100020316600290048015610e305780601f10610e0557610100808354040283529160200191610e30565b820191906000526020600020905b815481529060010190602001808311610e1357829003601f168201915b50505050509150808054600181600116156101000203166002900480601f016020809104026020016040519081016040528092919081815260200182805460018160011615610100020316600290048015610ecc5780601f10610ea157610100808354040283529160200191610ecc565b820191906000526020600020905b815481529060010190602001808311610eaf57829003601f168201915b50505050509050925092509250909192565b60006060806000610eed610a44565b9050600381815481101515610efe57fe5b906000526020600020906003020160000154600260003373ffffffffffffffffffffffffffffffffffffffff1673ffffffffffffffffffffffffffffffffffffffff16815260200190815260200160002060000181905550600381815481101515610f6557fe5b9060005260206000209060030201600101600260003373ffffffffffffffffffffffffffffffffffffffff1673ffffffffffffffffffffffffffffffffffffffff1681526020019081526020016000206001019080546001816001161561010002031660029004610fd792919061160e565b50600381815481101515610fe757fe5b9060005260206000209060030201600201600260003373ffffffffffffffffffffffffffffffffffffffff1673ffffffffffffffffffffffffffffffffffffffff168152602001908152602001600020600201908054600181600116156101000203166002900461105992919061160e565b50600160043390806001815401808255809150509060018203906000526020600020016000909192909190916101000a81548173ffffffffffffffffffffffffffffffffffffffff021916908373ffffffffffffffffffffffffffffffffffffffff160217905550505080600260003373ffffffffffffffffffffffffffffffffffffffff1673ffffffffffffffffffffffffffffffffffffffff168152602001908152602001600020600101600260003373ffffffffffffffffffffffffffffffffffffffff1673ffffffffffffffffffffffffffffffffffffffff168152602001908152602001600020600201818054600181600116156101000203166002900480601f0160208091040260200160405190810160405280929190818152602001828054600181600116156101000203166002900480156111dd5780601f106111b2576101008083540402835291602001916111dd565b820191906000526020600020905b8154815290600101906020018083116111c057829003601f168201915b50505050509150808054600181600116156101000203166002900480601f0160208091040260200160405190810160405280929190818152602001828054600181600116156101000203166002900480156112795780601f1061124e57610100808354040283529160200191611279565b820191906000526020600020905b81548152906001019060200180831161125c57829003601f168201915b5050505050905093509350935050909192565b6002602052806000526040600020600091509050806000015490806001018054600181600116156101000203166002900480601f01602080910402602001604051908101604052809291908181526020018280546001816001161561010002031660029004801561133e5780601f106113135761010080835404028352916020019161133e565b820191906000526020600020905b81548152906001019060200180831161132157829003601f168201915b505050505090806002018054600181600116156101000203166002900480601f0160208091040260200160405190810160405280929190818152602001828054600181600116156101000203166002900480156113dc5780601f106113b1576101008083540402835291602001916113dc565b820191906000526020600020905b8154815290600101906020018083116113bf57829003601f168201915b5050505050905083565b600060016113f26108da565b01905060016003606060405190810160405280848152602001868152602001858152509080600181540180825580915050906001820390600052602060002090600302016000909192909190915060008201518160000155602082015181600101908051906020019061146692919061158e565b50604082015181600201908051906020019061148392919061158e565b5050505050505050565b50805460018160011615610100020316600290046000825580601f106114b357506114d2565b601f0160209004906000526020600020908101906114d19190611695565b5b50565b828054600181600116156101000203166002900490600052602060002090601f016020900481019282601f1061150e578054855561154b565b8280016001018555821561154b57600052602060002091601f016020900482015b8281111561154a57825482559160010191906001019061152f565b5b5090506115589190611695565b5090565b8154818355818111156115895760030281600302836000526020600020918201910161158891906116ba565b5b505050565b828054600181600116156101000203166002900490600052602060002090601f016020900481019282601f106115cf57805160ff19168380011785556115fd565b828001600101855582156115fd579182015b828111156115fc5782518255916020019190600101906115e1565b5b50905061160a9190611695565b5090565b828054600181600116156101000203166002900490600052602060002090601f016020900481019282601f106116475780548555611684565b8280016001018555821561168457600052602060002091601f016020900482015b82811115611683578254825591600101919060010190611668565b5b5090506116919190611695565b5090565b6116b791905b808211156116b357600081600090555060010161169b565b5090565b90565b6116fe91905b808211156116fa576000808201600090556001820160006116e1919061148d565b6002820160006116f1919061148d565b506003016116c0565b5090565b9056fea165627a7a7230582086f9a28752a4e7b4b46bb018c74e05759b193eb23e64d6cf8014c9e03e79e55f0029",
  "source": "pragma solidity ^0.5.0;\n\ncontract GenerateAvatar {\n\n  string str = \"test\";\n  uint keep;\n  struct Avatar\n  {\n    uint id;\n    string name;\n    string class;\n    //uint256 rng;\n  }\n\n  constructor() public{\n    createAvatar(\"A\",\"Common\"); //1\n    createAvatar(\"B\",\"Common\"); //2\n    createAvatar(\"C\",\"Common\"); //3\n    createAvatar(\"D\",\"Common\"); //4\n    createAvatar(\"E\",\"Uncommon\"); //5\n    createAvatar(\"F\",\"Uncommon\"); //6\n    createAvatar(\"G\",\"Uncommon\"); //7\n    createAvatar(\"H\",\"Rare\"); //8\n    createAvatar(\"I\",\"Rare\"); //9\n    createAvatar(\"Z\",\"Special\"); //10\n  }\n\n  mapping (address => Avatar) public avatarOwner;\n  //mapping (address => Avatar) avatarz;\n\n  Avatar[] public avatars;\n  address[] public work;\n\n  function createAvatar(string memory _name, string memory _class) public\n  {\n\n    uint _id = index()+1;\n    avatars.push(Avatar({id:_id, name:_name, class:_class})) - 1;\n    //avatarOwner[_address].id = index();\n    //avatarOwner[_address].name = _name;\n    //avatarOwner[_address].class = _class;\n    //avatars[_address].rng = _rng;\n  }\n  function createAvatar(uint _id,string memory _name, string memory _class) public\n  {\n\n\n    avatars.push(Avatar({id:_id, name:_name, class:_class})) - 1;\n    //avatarOwner[_address].id = index();\n    //avatarOwner[_address].name = _name;\n    //avatarOwner[_address].class = _class;\n    //avatars[_address].rng = _rng;\n  }\n  function index() view public returns(uint)\n  {\n    return avatars.length;\n  }\n  function rngAvatar() public payable returns(uint,string memory, string memory)\n  {\n    uint rng = random();\n    // if(avatarOwner[msg.sender].id != 0)\n    //{\n    //    createAvatar(avatarOwner[msg.sender].id,avatarOwner[msg.sender].name,avatarOwner[msg.sender].class);\n    // everytime an account that already has an avatar uses the rngavatar the avatar is placed back into the array\n    //}\n    avatarOwner[msg.sender].id = avatars[rng].id;\n    avatarOwner[msg.sender].name = avatars[rng].name;\n    avatarOwner[msg.sender].class = avatars[rng].class;\n    work.push(msg.sender) - 1;\n    //deleteAndFix(rng) //takes the randomly generated Id, deletes it and re adjust the array to remove gaps.\n    return(rng,avatarOwner[msg.sender].name,avatarOwner[msg.sender].class); //Returns rng avatar name & class\n\n  }\n  function getAvatar()public view returns(uint,string memory,string memory)\n  {\n    return(avatarOwner[msg.sender].id,avatarOwner[msg.sender].name,avatarOwner[msg.sender].class);\n  }\n  function random() public view returns(uint)\n  {\n    //return(uint(blockhash(block.number-1))%90 + 10); //Take random number from 0-9 using the block.number\n    uint ran = uint(keccak256(abi.encode(now,msg.sender,keep)))%index()+1;\n    return ran;\n  }\n  function deleteAndFix(uint _rng) public {\n    delete avatars[_rng];\n    for (uint i = _rng; i<avatars.length-1; i++){\n      avatars[i] = avatars[i+1];\n    }\n    //delete array[array.length-1];\n    avatars.length--;\n    //return avatars;\n  }\n}\n",
  "sourcePath": "/Users/chamie/ronjiru-final/contracts/GenerateAvatar.sol",
  "compiler": {
    "name": "solc",
    "version": "0.5.0+commit.1d4f565a.Emscripten.clang"
  },
  "schemaVersion": "3.0.6",
  "updatedAt": "2019-04-22T07:46:31.491Z",
  "devdoc": {
    "methods": {}
  },
  "userdoc": {
    "methods": {}
  }
}