{
  "contractName": "GenerateAvatar",
  "abi": [
    {
      "inputs": [],
      "payable": false,
      "stateMutability": "nonpayable",
      "type": "constructor",
      "signature": "constructor"
    },
    {
      "constant": false,
      "inputs": [
        {
          "name": "_name",
          "type": "string"
        },
        {
          "name": "_class",
          "type": "string"
        }
      ],
      "name": "addAvatars",
      "outputs": [],
      "payable": false,
      "stateMutability": "nonpayable",
      "type": "function",
      "signature": "0x6501d526"
    },
    {
      "constant": true,
      "inputs": [],
      "name": "getIndex",
      "outputs": [
        {
          "name": "",
          "type": "uint256"
        }
      ],
      "payable": false,
      "stateMutability": "view",
      "type": "function",
      "signature": "0x81045ead"
    },
    {
      "constant": true,
      "inputs": [],
      "name": "rngAvatar",
      "outputs": [
        {
          "name": "",
          "type": "string"
        },
        {
          "name": "",
          "type": "string"
        }
      ],
      "payable": false,
      "stateMutability": "view",
      "type": "function",
      "signature": "0xb9754d4e"
    }
  ],
  "bytecode": "0x608060405234801561001057600080fd5b506100946040805190810160405280600181526020017f41000000000000000000000000000000000000000000000000000000000000008152506040805190810160405280600681526020017f436f6d6d6f6e0000000000000000000000000000000000000000000000000000815250610534640100000000026401000000009004565b6101176040805190810160405280600181526020017f42000000000000000000000000000000000000000000000000000000000000008152506040805190810160405280600681526020017f436f6d6d6f6e0000000000000000000000000000000000000000000000000000815250610534640100000000026401000000009004565b61019a6040805190810160405280600181526020017f43000000000000000000000000000000000000000000000000000000000000008152506040805190810160405280600681526020017f436f6d6d6f6e0000000000000000000000000000000000000000000000000000815250610534640100000000026401000000009004565b61021d6040805190810160405280600181526020017f44000000000000000000000000000000000000000000000000000000000000008152506040805190810160405280600681526020017f436f6d6d6f6e0000000000000000000000000000000000000000000000000000815250610534640100000000026401000000009004565b6102a06040805190810160405280600181526020017f45000000000000000000000000000000000000000000000000000000000000008152506040805190810160405280600881526020017f556e636f6d6d6f6e000000000000000000000000000000000000000000000000815250610534640100000000026401000000009004565b6103236040805190810160405280600181526020017f46000000000000000000000000000000000000000000000000000000000000008152506040805190810160405280600881526020017f556e636f6d6d6f6e000000000000000000000000000000000000000000000000815250610534640100000000026401000000009004565b6103a66040805190810160405280600181526020017f47000000000000000000000000000000000000000000000000000000000000008152506040805190810160405280600881526020017f556e636f6d6d6f6e000000000000000000000000000000000000000000000000815250610534640100000000026401000000009004565b6104296040805190810160405280600181526020017f48000000000000000000000000000000000000000000000000000000000000008152506040805190810160405280600481526020017f5261726500000000000000000000000000000000000000000000000000000000815250610534640100000000026401000000009004565b6104ac6040805190810160405280600181526020017f49000000000000000000000000000000000000000000000000000000000000008152506040805190810160405280600481526020017f5261726500000000000000000000000000000000000000000000000000000000815250610534640100000000026401000000009004565b61052f6040805190810160405280600181526020017f5a000000000000000000000000000000000000000000000000000000000000008152506040805190810160405280600781526020017f5370656369616c00000000000000000000000000000000000000000000000000815250610534640100000000026401000000009004565b610695565b600061054d6105e4640100000000026401000000009004565b9050600060606040519081016040528083815260200185815260200184815250908060018154018082558091505090600182039060005260206000209060030201600090919290919091506000820151816000015560208201518160010190805190602001906105be9291906105f0565b5060408201518160020190805190602001906105db9291906105f0565b50505050505050565b60008080549050905090565b828054600181600116156101000203166002900490600052602060002090601f016020900481019282601f1061063157805160ff191683800117855561065f565b8280016001018555821561065f579182015b8281111561065e578251825591602001919060010190610643565b5b50905061066c9190610670565b5090565b61069291905b8082111561068e576000816000905550600101610676565b5090565b90565b61060c806106a46000396000f3fe608060405260043610610057576000357c0100000000000000000000000000000000000000000000000000000000900463ffffffff1680636501d5261461005c57806381045ead146101bb578063b9754d4e146101e6575b600080fd5b34801561006857600080fd5b506101b96004803603604081101561007f57600080fd5b810190808035906020019064010000000081111561009c57600080fd5b8201836020820111156100ae57600080fd5b803590602001918460018302840111640100000000831117156100d057600080fd5b91908080601f016020809104026020016040519081016040528093929190818152602001838380828437600081840152601f19601f8201169050808301925050505050505091929192908035906020019064010000000081111561013357600080fd5b82018360208201111561014557600080fd5b8035906020019184600183028401116401000000008311171561016757600080fd5b91908080601f016020809104026020016040519081016040528093929190818152602001838380828437600081840152601f19601f8201169050808301925050505050505091929192905050506102e2565b005b3480156101c757600080fd5b506101d0610383565b6040518082815260200191505060405180910390f35b3480156101f257600080fd5b506101fb61038f565b604051808060200180602001838103835285818151815260200191508051906020019080838360005b8381101561023f578082015181840152602081019050610224565b50505050905090810190601f16801561026c5780820380516001836020036101000a031916815260200191505b50838103825284818151815260200191508051906020019080838360005b838110156102a557808201518184015260208101905061028a565b50505050905090810190601f1680156102d25780820380516001836020036101000a031916815260200191505b5094505050505060405180910390f35b60006102ec610383565b90506000606060405190810160405280838152602001858152602001848152509080600181540180825580915050906001820390600052602060002090600302016000909192909190915060008201518160000155602082015181600101908051906020019061035d92919061053b565b50604082015181600201908051906020019061037a92919061053b565b50505050505050565b60008080549050905090565b606080600061039c61051f565b90506000818154811015156103ad57fe5b90600052602060002090600302016001016000828154811015156103cd57fe5b9060005260206000209060030201600201818054600181600116156101000203166002900480601f0160208091040260200160405190810160405280929190818152602001828054600181600116156101000203166002900480156104735780601f1061044857610100808354040283529160200191610473565b820191906000526020600020905b81548152906001019060200180831161045657829003601f168201915b50505050509150808054600181600116156101000203166002900480601f01602080910402602001604051908101604052809291908181526020018280546001816001161561010002031660029004801561050f5780601f106104e45761010080835404028352916020019161050f565b820191906000526020600020905b8154815290600101906020018083116104f257829003601f168201915b5050505050905092509250509091565b6000600a60014303406001900481151561053557fe5b06905090565b828054600181600116156101000203166002900490600052602060002090601f016020900481019282601f1061057c57805160ff19168380011785556105aa565b828001600101855582156105aa579182015b828111156105a957825182559160200191906001019061058e565b5b5090506105b791906105bb565b5090565b6105dd91905b808211156105d95760008160009055506001016105c1565b5090565b9056fea165627a7a72305820fdc725a9a99d62553318dfd22d4f284b3b7bf5aed17609d60d5bd6b7bd7f3a8f0029",
  "source": "pragma solidity ^0.5.0;\n\ncontract GenerateAvatar {\n  struct Avatar\n  {\n    uint id;\n    string name;\n    string class;\n\n  }\n\n  Avatar[] avatars;\n\n  constructor() public {\n\n    addAvatars (\"A\",\"Common\"); //1\n    addAvatars (\"B\",\"Common\"); //2\n    addAvatars (\"C\",\"Common\"); //3\n    addAvatars (\"D\",\"Common\"); //4\n    addAvatars (\"E\",\"Uncommon\"); //5\n    addAvatars (\"F\",\"Uncommon\"); //6\n    addAvatars (\"G\",\"Uncommon\"); //7\n    addAvatars (\"H\",\"Rare\"); //8\n    addAvatars (\"I\",\"Rare\"); //9\n    addAvatars (\"Z\",\"Special\"); //10\n\n  }\n\n  function addAvatars (string memory _name, string memory _class) public {\n    uint _id = getIndex();\n    avatars.push(Avatar({ //Pushing our avatars into array\n      id: _id,\n      name: _name,\n      class: _class\n      }));\n\n  }\n\n  function getIndex() view public returns (uint){\n    return avatars.length; //Need to make a function return avatars.length\n  }\n\n  function rngAvatar() view public returns(string memory, string memory){\n    uint rng = random();\n    return(avatars[rng].name,avatars[rng].class); //Returns rng avatar name & class\n  }\n\n  function random() private view returns (uint) {\n    return uint(blockhash(block.number-1))%10; //Take random number from 0-9 using the block.number\n  }\n}\n",
  "sourcePath": "/Users/chamie/ronjiru-final/contracts/GenerateAvatar.sol",
  "compiler": {
    "name": "solc",
    "version": "0.5.0+commit.1d4f565a.Emscripten.clang"
  },
  "schemaVersion": "3.0.6",
  "updatedAt": "2019-04-21T01:59:06.501Z",
  "devdoc": {
    "methods": {}
  },
  "userdoc": {
    "methods": {}
  }
}