{
  "contractName": "GenerateAvatar",
  "abi": [
    {
      "constant": true,
      "inputs": [
        {
          "name": "",
          "type": "uint256"
        }
      ],
      "name": "work",
      "outputs": [
        {
          "name": "",
          "type": "address"
        }
      ],
      "payable": false,
      "stateMutability": "view",
      "type": "function",
      "signature": "0x5858d161"
    },
    {
      "constant": true,
      "inputs": [
        {
          "name": "",
          "type": "uint256"
        }
      ],
      "name": "avatars",
      "outputs": [
        {
          "name": "id",
          "type": "uint256"
        },
        {
          "name": "name",
          "type": "string"
        },
        {
          "name": "class",
          "type": "string"
        }
      ],
      "payable": false,
      "stateMutability": "view",
      "type": "function",
      "signature": "0x834d5fac"
    },
    {
      "constant": true,
      "inputs": [
        {
          "name": "",
          "type": "address"
        }
      ],
      "name": "avatarOwner",
      "outputs": [
        {
          "name": "id",
          "type": "uint256"
        },
        {
          "name": "name",
          "type": "string"
        },
        {
          "name": "class",
          "type": "string"
        }
      ],
      "payable": false,
      "stateMutability": "view",
      "type": "function",
      "signature": "0xdea4e08f"
    },
    {
      "constant": true,
      "inputs": [],
      "name": "keep",
      "outputs": [
        {
          "name": "",
          "type": "uint256"
        }
      ],
      "payable": false,
      "stateMutability": "view",
      "type": "function",
      "signature": "0xe4d06d82"
    },
    {
      "constant": true,
      "inputs": [],
      "name": "test",
      "outputs": [
        {
          "name": "",
          "type": "string"
        }
      ],
      "payable": false,
      "stateMutability": "view",
      "type": "function",
      "signature": "0xf8a8fd6d"
    },
    {
      "inputs": [],
      "payable": false,
      "stateMutability": "nonpayable",
      "type": "constructor",
      "signature": "constructor"
    },
    {
      "constant": false,
      "inputs": [
        {
          "name": "_id",
          "type": "uint256"
        },
        {
          "name": "_name",
          "type": "string"
        },
        {
          "name": "_class",
          "type": "string"
        }
      ],
      "name": "createAvatar",
      "outputs": [],
      "payable": false,
      "stateMutability": "nonpayable",
      "type": "function",
      "signature": "0x68ae6794"
    },
    {
      "constant": false,
      "inputs": [
        {
          "name": "_name",
          "type": "string"
        },
        {
          "name": "_class",
          "type": "string"
        }
      ],
      "name": "createAvatar",
      "outputs": [],
      "payable": false,
      "stateMutability": "nonpayable",
      "type": "function",
      "signature": "0xe4a309bf"
    },
    {
      "constant": true,
      "inputs": [],
      "name": "index",
      "outputs": [
        {
          "name": "",
          "type": "uint256"
        }
      ],
      "payable": false,
      "stateMutability": "view",
      "type": "function",
      "signature": "0x2986c0e5"
    },
    {
      "constant": false,
      "inputs": [],
      "name": "rngAvatar",
      "outputs": [
        {
          "name": "",
          "type": "uint256"
        }
      ],
      "payable": false,
      "stateMutability": "nonpayable",
      "type": "function",
      "signature": "0xb9754d4e"
    },
    {
      "constant": true,
      "inputs": [],
      "name": "getAvatar",
      "outputs": [
        {
          "name": "",
          "type": "uint256"
        },
        {
          "name": "",
          "type": "string"
        },
        {
          "name": "",
          "type": "string"
        }
      ],
      "payable": false,
      "stateMutability": "view",
      "type": "function",
      "signature": "0xaa8b20f6"
    },
    {
      "constant": true,
      "inputs": [],
      "name": "random",
      "outputs": [
        {
          "name": "",
          "type": "uint256"
        }
      ],
      "payable": false,
      "stateMutability": "view",
      "type": "function",
      "signature": "0x5ec01e4d"
    },
    {
      "constant": false,
      "inputs": [
        {
          "name": "_rng",
          "type": "uint256"
        }
      ],
      "name": "deleteAndFix",
      "outputs": [],
      "payable": false,
      "stateMutability": "nonpayable",
      "type": "function",
      "signature": "0x5888f68d"
    },
    {
      "constant": false,
      "inputs": [
        {
          "name": "_text",
          "type": "string"
        }
      ],
      "name": "setString",
      "outputs": [
        {
          "name": "",
          "type": "string"
        }
      ],
      "payable": false,
      "stateMutability": "nonpayable",
      "type": "function",
      "signature": "0x7fcaf666"
    },
    {
      "constant": false,
      "inputs": [
        {
          "name": "_num",
          "type": "uint256"
        }
      ],
      "name": "setNum",
      "outputs": [
        {
          "name": "",
          "type": "uint256"
        }
      ],
      "payable": false,
      "stateMutability": "nonpayable",
      "type": "function",
      "signature": "0xcd16ecbf"
    }
  ],
  "bytecode": "0x608060405260016000556040805190810160405280600281526020017f6869000000000000000000000000000000000000000000000000000000000000815250600190805190602001906200005692919062000666565b503480156200006457600080fd5b50620000ea6040805190810160405280600181526020017f41000000000000000000000000000000000000000000000000000000000000008152506040805190810160405280600681526020017f436f6d6d6f6e00000000000000000000000000000000000000000000000000008152506200059d640100000000026401000000009004565b6200016f6040805190810160405280600181526020017f42000000000000000000000000000000000000000000000000000000000000008152506040805190810160405280600681526020017f436f6d6d6f6e00000000000000000000000000000000000000000000000000008152506200059d640100000000026401000000009004565b620001f46040805190810160405280600181526020017f43000000000000000000000000000000000000000000000000000000000000008152506040805190810160405280600681526020017f436f6d6d6f6e00000000000000000000000000000000000000000000000000008152506200059d640100000000026401000000009004565b620002796040805190810160405280600181526020017f44000000000000000000000000000000000000000000000000000000000000008152506040805190810160405280600681526020017f436f6d6d6f6e00000000000000000000000000000000000000000000000000008152506200059d640100000000026401000000009004565b620002fe6040805190810160405280600181526020017f45000000000000000000000000000000000000000000000000000000000000008152506040805190810160405280600881526020017f556e636f6d6d6f6e0000000000000000000000000000000000000000000000008152506200059d640100000000026401000000009004565b620003836040805190810160405280600181526020017f46000000000000000000000000000000000000000000000000000000000000008152506040805190810160405280600881526020017f556e636f6d6d6f6e0000000000000000000000000000000000000000000000008152506200059d640100000000026401000000009004565b620004086040805190810160405280600181526020017f47000000000000000000000000000000000000000000000000000000000000008152506040805190810160405280600881526020017f556e636f6d6d6f6e0000000000000000000000000000000000000000000000008152506200059d640100000000026401000000009004565b6200048d6040805190810160405280600181526020017f48000000000000000000000000000000000000000000000000000000000000008152506040805190810160405280600481526020017f52617265000000000000000000000000000000000000000000000000000000008152506200059d640100000000026401000000009004565b620005126040805190810160405280600181526020017f49000000000000000000000000000000000000000000000000000000000000008152506040805190810160405280600481526020017f52617265000000000000000000000000000000000000000000000000000000008152506200059d640100000000026401000000009004565b620005976040805190810160405280600181526020017f5a000000000000000000000000000000000000000000000000000000000000008152506040805190810160405280600781526020017f5370656369616c000000000000000000000000000000000000000000000000008152506200059d640100000000026401000000009004565b6200079c565b60006001620005ba62000659640100000000026401000000009004565b01905060016003606060405190810160405280848152602001868152602001858152509080600181540180825580915050906001820390600052602060002090600302016000909192909190915060008201518160000155602082015181600101908051906020019062000630929190620006ed565b5060408201518160020190805190602001906200064f929190620006ed565b5050505050505050565b6000600380549050905090565b828054600181600116156101000203166002900490600052602060002090601f016020900481019282601f10620006a957805160ff1916838001178555620006da565b82800160010185558215620006da579182015b82811115620006d9578251825591602001919060010190620006bc565b5b509050620006e9919062000774565b5090565b828054600181600116156101000203166002900490600052602060002090601f016020900481019282601f106200073057805160ff191683800117855562000761565b8280016001018555821562000761579182015b828111156200076057825182559160200191906001019062000743565b5b50905062000770919062000774565b5090565b6200079991905b80821115620007955760008160009055506001016200077b565b5090565b90565b61160880620007ac6000396000f3fe6080604052600436106100d0576000357c0100000000000000000000000000000000000000000000000000000000900463ffffffff1680632986c0e5146100d55780635858d161146101005780635888f68d1461017b5780635ec01e4d146101b657806368ae6794146101e15780637fcaf6661461034a578063834d5fac1461048b578063aa8b20f6146105b2578063b9754d4e146106b5578063cd16ecbf146106e0578063dea4e08f1461072f578063e4a309bf1461086c578063e4d06d82146109cb578063f8a8fd6d146109f6575b600080fd5b3480156100e157600080fd5b506100ea610a86565b6040518082815260200191505060405180910390f35b34801561010c57600080fd5b506101396004803603602081101561012357600080fd5b8101908080359060200190929190505050610a93565b604051808273ffffffffffffffffffffffffffffffffffffffff1673ffffffffffffffffffffffffffffffffffffffff16815260200191505060405180910390f35b34801561018757600080fd5b506101b46004803603602081101561019e57600080fd5b8101908080359060200190929190505050610ad1565b005b3480156101c257600080fd5b506101cb610bf0565b6040518082815260200191505060405180910390f35b3480156101ed57600080fd5b506103486004803603606081101561020457600080fd5b81019080803590602001909291908035906020019064010000000081111561022b57600080fd5b82018360208201111561023d57600080fd5b8035906020019184600183028401116401000000008311171561025f57600080fd5b91908080601f016020809104026020016040519081016040528093929190818152602001838380828437600081840152601f19601f820116905080830192505050505050509192919290803590602001906401000000008111156102c257600080fd5b8201836020820111156102d457600080fd5b803590602001918460018302840111640100000000831117156102f657600080fd5b91908080601f016020809104026020016040519081016040528093929190818152602001838380828437600081840152601f19601f820116905080830192505050505050509192919290505050610c7a565b005b34801561035657600080fd5b506104106004803603602081101561036d57600080fd5b810190808035906020019064010000000081111561038a57600080fd5b82018360208201111561039c57600080fd5b803590602001918460018302840111640100000000831117156103be57600080fd5b91908080601f016020809104026020016040519081016040528093929190818152602001838380828437600081840152601f19601f820116905080830192505050505050509192919290505050610d12565b6040518080602001828103825283818151815260200191508051906020019080838360005b83811015610450578082015181840152602081019050610435565b50505050905090810190601f16801561047d5780820380516001836020036101000a031916815260200191505b509250505060405180910390f35b34801561049757600080fd5b506104c4600480360360208110156104ae57600080fd5b8101908080359060200190929190505050610d30565b604051808481526020018060200180602001838103835285818151815260200191508051906020019080838360005b8381101561050e5780820151818401526020810190506104f3565b50505050905090810190601f16801561053b5780820380516001836020036101000a031916815260200191505b50838103825284818151815260200191508051906020019080838360005b83811015610574578082015181840152602081019050610559565b50505050905090810190601f1680156105a15780820380516001836020036101000a031916815260200191505b509550505050505060405180910390f35b3480156105be57600080fd5b506105c7610e99565b604051808481526020018060200180602001838103835285818151815260200191508051906020019080838360005b838110156106115780820151818401526020810190506105f6565b50505050905090810190601f16801561063e5780820380516001836020036101000a031916815260200191505b50838103825284818151815260200191508051906020019080838360005b8381101561067757808201518184015260208101905061065c565b50505050905090810190601f1680156106a45780820380516001836020036101000a031916815260200191505b509550505050505060405180910390f35b3480156106c157600080fd5b506106ca6110a8565b6040518082815260200191505060405180910390f35b3480156106ec57600080fd5b506107196004803603602081101561070357600080fd5b81019080803590602001909291905050506110bc565b6040518082815260200191505060405180910390f35b34801561073b57600080fd5b5061077e6004803603602081101561075257600080fd5b81019080803573ffffffffffffffffffffffffffffffffffffffff1690602001909291905050506110ca565b604051808481526020018060200180602001838103835285818151815260200191508051906020019080838360005b838110156107c85780820151818401526020810190506107ad565b50505050905090810190601f1680156107f55780820380516001836020036101000a031916815260200191505b50838103825284818151815260200191508051906020019080838360005b8381101561082e578082015181840152602081019050610813565b50505050905090810190601f16801561085b5780820380516001836020036101000a031916815260200191505b509550505050505060405180910390f35b34801561087857600080fd5b506109c96004803603604081101561088f57600080fd5b81019080803590602001906401000000008111156108ac57600080fd5b8201836020820111156108be57600080fd5b803590602001918460018302840111640100000000831117156108e057600080fd5b91908080601f016020809104026020016040519081016040528093929190818152602001838380828437600081840152601f19601f8201169050808301925050505050505091929192908035906020019064010000000081111561094357600080fd5b82018360208201111561095557600080fd5b8035906020019184600183028401116401000000008311171561097757600080fd5b91908080601f016020809104026020016040519081016040528093929190818152602001838380828437600081840152601f19601f820116905080830192505050505050509192919290505050611224565b005b3480156109d757600080fd5b506109e06112cb565b6040518082815260200191505060405180910390f35b348015610a0257600080fd5b50610a0b6112d1565b6040518080602001828103825283818151815260200191508051906020019080838360005b83811015610a4b578082015181840152602081019050610a30565b50505050905090810190601f168015610a785780820380516001836020036101000a031916815260200191505b509250505060405180910390f35b6000600380549050905090565b600481815481101515610aa257fe5b906000526020600020016000915054906101000a900473ffffffffffffffffffffffffffffffffffffffff1681565b600381815481101515610ae057fe5b9060005260206000209060030201600080820160009055600182016000610b07919061136f565b600282016000610b17919061136f565b505060008190505b600160038054905003811015610bd657600360018201815481101515610b4157fe5b9060005260206000209060030201600382815481101515610b5e57fe5b90600052602060002090600302016000820154816000015560018201816001019080546001816001161561010002031660029004610b9d9291906113b7565b5060028201816002019080546001816001161561010002031660029004610bc59291906113b7565b509050508080600101915050610b1f565b506003805480919060019003610bec919061143e565b5050565b6000806001610bfd610a86565b4233600054604051602001808481526020018373ffffffffffffffffffffffffffffffffffffffff1673ffffffffffffffffffffffffffffffffffffffff16815260200182815260200193505050506040516020818303038152906040528051906020012060019004811515610c6f57fe5b060190508091505090565b600160036060604051908101604052808681526020018581526020018481525090806001815401808255809150509060018203906000526020600020906003020160009091929091909150600082015181600001556020820151816001019080519060200190610ceb929190611470565b506040820151816002019080519060200190610d08929190611470565b5050505050505050565b60608160019080519060200190610d2a9291906114f0565b50919050565b600381815481101515610d3f57fe5b9060005260206000209060030201600091509050806000015490806001018054600181600116156101000203166002900480601f016020809104026020016040519081016040528092919081815260200182805460018160011615610100020316600290048015610df15780601f10610dc657610100808354040283529160200191610df1565b820191906000526020600020905b815481529060010190602001808311610dd457829003601f168201915b505050505090806002018054600181600116156101000203166002900480601f016020809104026020016040519081016040528092919081815260200182805460018160011615610100020316600290048015610e8f5780601f10610e6457610100808354040283529160200191610e8f565b820191906000526020600020905b815481529060010190602001808311610e7257829003601f168201915b5050505050905083565b6000606080600260003373ffffffffffffffffffffffffffffffffffffffff1673ffffffffffffffffffffffffffffffffffffffff16815260200190815260200160002060000154600260003373ffffffffffffffffffffffffffffffffffffffff1673ffffffffffffffffffffffffffffffffffffffff168152602001908152602001600020600101600260003373ffffffffffffffffffffffffffffffffffffffff1673ffffffffffffffffffffffffffffffffffffffff168152602001908152602001600020600201818054600181600116156101000203166002900480601f016020809104026020016040519081016040528092919081815260200182805460018160011615610100020316600290048015610ffa5780601f10610fcf57610100808354040283529160200191610ffa565b820191906000526020600020905b815481529060010190602001808311610fdd57829003601f168201915b50505050509150808054600181600116156101000203166002900480601f0160208091040260200160405190810160405280929190818152602001828054600181600116156101000203166002900480156110965780601f1061106b57610100808354040283529160200191611096565b820191906000526020600020905b81548152906001019060200180831161107957829003601f168201915b50505050509050925092509250909192565b6000806110b3610bf0565b90508091505090565b600081600081905550919050565b6002602052806000526040600020600091509050806000015490806001018054600181600116156101000203166002900480601f01602080910402602001604051908101604052809291908181526020018280546001816001161561010002031660029004801561117c5780601f106111515761010080835404028352916020019161117c565b820191906000526020600020905b81548152906001019060200180831161115f57829003601f168201915b505050505090806002018054600181600116156101000203166002900480601f01602080910402602001604051908101604052809291908181526020018280546001816001161561010002031660029004801561121a5780601f106111ef5761010080835404028352916020019161121a565b820191906000526020600020905b8154815290600101906020018083116111fd57829003601f168201915b5050505050905083565b60006001611230610a86565b0190506001600360606040519081016040528084815260200186815260200185815250908060018154018082558091505090600182039060005260206000209060030201600090919290919091506000820151816000015560208201518160010190805190602001906112a4929190611470565b5060408201518160020190805190602001906112c1929190611470565b5050505050505050565b60005481565b60018054600181600116156101000203166002900480601f0160208091040260200160405190810160405280929190818152602001828054600181600116156101000203166002900480156113675780601f1061133c57610100808354040283529160200191611367565b820191906000526020600020905b81548152906001019060200180831161134a57829003601f168201915b505050505081565b50805460018160011615610100020316600290046000825580601f1061139557506113b4565b601f0160209004906000526020600020908101906113b39190611570565b5b50565b828054600181600116156101000203166002900490600052602060002090601f016020900481019282601f106113f0578054855561142d565b8280016001018555821561142d57600052602060002091601f016020900482015b8281111561142c578254825591600101919060010190611411565b5b50905061143a9190611570565b5090565b81548183558181111561146b5760030281600302836000526020600020918201910161146a9190611595565b5b505050565b828054600181600116156101000203166002900490600052602060002090601f016020900481019282601f106114b157805160ff19168380011785556114df565b828001600101855582156114df579182015b828111156114de5782518255916020019190600101906114c3565b5b5090506114ec9190611570565b5090565b828054600181600116156101000203166002900490600052602060002090601f016020900481019282601f1061153157805160ff191683800117855561155f565b8280016001018555821561155f579182015b8281111561155e578251825591602001919060010190611543565b5b50905061156c9190611570565b5090565b61159291905b8082111561158e576000816000905550600101611576565b5090565b90565b6115d991905b808211156115d5576000808201600090556001820160006115bc919061136f565b6002820160006115cc919061136f565b5060030161159b565b5090565b9056fea165627a7a723058204f4638f5c41544d31cc9f48c9accf35a9fa23c17c28b2c67f9c00778e30d4a950029",
  "source": "pragma solidity ^0.5.0;\r\n\r\ncontract GenerateAvatar {\r\n\r\n  uint public keep = 1;\r\n  string public test = \"hi\";\r\n\r\n  struct Avatar\r\n  {\r\n    uint id;\r\n    string name;\r\n    string class;\r\n    //uint256 rng;\r\n  }\r\n\r\n  constructor() public{\r\n    createAvatar(\"A\",\"Common\"); //1\r\n    createAvatar(\"B\",\"Common\"); //2\r\n    createAvatar(\"C\",\"Common\"); //3\r\n    createAvatar(\"D\",\"Common\"); //4\r\n    createAvatar(\"E\",\"Uncommon\"); //5\r\n    createAvatar(\"F\",\"Uncommon\"); //6\r\n    createAvatar(\"G\",\"Uncommon\"); //7\r\n    createAvatar(\"H\",\"Rare\"); //8\r\n    createAvatar(\"I\",\"Rare\"); //9\r\n    createAvatar(\"Z\",\"Special\"); //10\r\n  }\r\n\r\n  mapping (address => Avatar) public avatarOwner;\r\n  //mapping (address => Avatar) avatarz;\r\n\r\n  Avatar[] public avatars;\r\n  address[] public work;\r\n\r\n  function createAvatar(string memory _name, string memory _class) public\r\n  {\r\n\r\n    uint _id = index()+1;\r\n    avatars.push(Avatar({id:_id, name:_name, class:_class})) - 1;\r\n    //avatarOwner[_address].id = index();\r\n    //avatarOwner[_address].name = _name;\r\n    //avatarOwner[_address].class = _class;\r\n    //avatars[_address].rng = _rng;\r\n  }\r\n  function createAvatar(uint _id,string memory _name, string memory _class) public\r\n  {\r\n\r\n\r\n    avatars.push(Avatar({id:_id, name:_name, class:_class})) - 1;\r\n    //avatarOwner[_address].id = index();\r\n    //avatarOwner[_address].name = _name;\r\n    //avatarOwner[_address].class = _class;\r\n    //avatars[_address].rng = _rng;\r\n  }\r\n  function index() view public returns(uint)\r\n  {\r\n    return avatars.length;\r\n  }\r\n  function rngAvatar() public returns(uint)\r\n  {\r\n    uint rng = random();\r\n    // if(avatarOwner[msg.sender].id != 0)\r\n    //{\r\n    //    createAvatar(avatarOwner[msg.sender].id,avatarOwner[msg.sender].name,avatarOwner[msg.sender].class);\r\n    // everytime an account that already has an avatar uses the rngavatar the avatar is placed back into the array\r\n    //}\r\n//    avatarOwner[msg.sender].id = avatars[rng].id;\r\n//    avatarOwner[msg.sender].name = avatars[rng].name;\r\n//    avatarOwner[msg.sender].class = avatars[rng].class;\r\n//    work.push(msg.sender) - 1;\r\n\r\n    // return(rng,avatarOwner[msg.sender].name,avatarOwner[msg.sender].class); //Returns rng avatar name & class\r\n\r\n    return rng;\r\n\r\n  }\r\n  function getAvatar()public view returns(uint,string memory,string memory)\r\n  {\r\n    return(avatarOwner[msg.sender].id,avatarOwner[msg.sender].name,avatarOwner[msg.sender].class);\r\n  }\r\n\r\n  function random() public view returns(uint)\r\n  {\r\n    //return(uint(blockhash(block.number-1))%90 + 10); //Take random number from 0-9 using the block.number\r\n    uint ran = uint(keccak256(abi.encode(now,msg.sender,keep)))%index()+1;\r\n    return ran;\r\n\r\n  }\r\n\r\n  function deleteAndFix(uint _rng) public {\r\n    delete avatars[_rng];\r\n    for (uint i = _rng; i<avatars.length-1; i++){\r\n      avatars[i] = avatars[i+1];\r\n    }\r\n    //delete array[array.length-1];\r\n    avatars.length--;\r\n    //return avatars;\r\n  }\r\n  function setString(string memory _text) public returns(string memory) {\r\n    test = _text;\r\n  }\r\n  function setNum(uint _num) public returns(uint) {\r\n    keep = _num;\r\n  }\r\n}\r\n",
  "sourcePath": "C:/Users/Rei Suzuya/WebstormProjects/ronjiru-final/contracts/GenerateAvatar.sol",
  "compiler": {
    "name": "solc",
    "version": "0.5.0+commit.1d4f565a.Emscripten.clang"
  },
  "schemaVersion": "3.0.6",
  "updatedAt": "2019-04-30T03:25:10.558Z",
  "devdoc": {
    "methods": {}
  },
  "userdoc": {
    "methods": {}
  }
}